:100000000C94F3000C943A010C943A010C943A01CC
:100010000C943A010C943A010C943A010C943A0174
:100020000C943A010C943A010C943E180C94121959
:100030000C945B130C943A010C943A010C943A0121
:100040000C943A010C943A010C943A010C943A0144
:100050000C943A010C94A6130C943A010C943A01B6
:100060000C943A010C943A010C943A010C943A0124
:100070000C943A010C943A010C943A010C943A0114
:100080000C943A010C943A010C943A010C943A0104
:100090000C943A010C943A010C943A010C943A01F4
:1000A0000C943A010C943A010C943A011D0106019A
:1000B00019011007A80004033000000012036B00B0
:1000C0006500790062006F0061007200640000004A
:1000D000160371006D006B006200750069006C0012
:1000E00064006500720000000403090409023B007B
:1000F000020100A0FA090400000103010100092126
:10010000110100012240000705810308000A0904CB
:1001100001000103000000092111010001226D000E
:100120000705820320000A1201100100000008EDFB
:10013000FE606001000102030105010980A1018543
:100140000319012AB700150126B700950175108122
:1001500000C0050C0901A101850419012AA002159E
:100160000126A002950175108100C005010906A1B4
:10017000018505050719E029E71500250195087592
:100180000181020507190029EF1500250195F07579
:10019000018102050819012905950575019102954E
:1001A0000175039101C005010906A101050719E0C8
:1001B00029E715002501950875018102950175084B
:1001C00081010507190029FF150026FF0095067516
:1001D0000881000508190129059505750191029509
:1001E0000175039101C011241FBECFEFDAE0DEBF1D
:1001F000CDBF04B603FE27C080913B0290913C0224
:10020000A0913D02B0913E028730904BA740B04B89
:10021000D1F410923B0210923C0210923D021092D7
:100220003E0214BE84B7877F84BF0FB6F894A895AA
:1002300080916000886180936000109260000FBE22
:10024000E0E0F8E3099511E0A0E0B1E0ECE6F6E3C8
:1002500002C005900D92A438B107D9F722E0A4E8B6
:10026000B1E001C01D92AB33B207E1F70E946F15F8
:100270000C940C1B0C9400000895089581E00895DF
:10028000089589EA611101C08AEA0C940B0981E0A2
:1002900008950C943E0108950C944B011F93CF9345
:1002A000DF9300D000D00F92CDB7DEB749835A83D9
:1002B0006B833091960189819A8131111DC066232B
:1002C000B9F02223A9F00E946810182F682F8981A5
:1002D0009A810E94111069817A81812F0F900F906D
:1002E0000F900F900F90DF91CF911F910C9401020E
:1002F0000E943F10182FEFCF0E94681069817A8109
:10030000EDCFFC01262F4081518162817381848170
:100310000C944E01CF93DF93EC0160E00E948101C9
:10032000BE01DF91CF910C944C010E94AC11811160
:1003300002C00E9449120E94BE040C9405040E944F
:10034000D4040C9407040C94400181E008950C94AB
:10035000A501CF93C82F0E94A3018C2FCF910C949D
:10036000A70108950E947B0B0E94B1012FEF84E347
:100370009CE0215080409040E1F700C000000C94C8
:10038000CA130F931F93CF93DF93EC0161E00E9498
:1003900081018C01BE010E944901882329F1BE011F
:1003A000C8010E9486058823F9F0BE01C8010E9499
:1003B000C7058823C9F0BE01C8010E94EA06882348
:1003C00099F08A81882339F001158CE5180751F0DE
:1003D0000E3D1C4579F0CE01DF91CF911F910F9119
:1003E0000C9447010E94B20180E0DF91CF911F91F0
:1003F0000F9108950E944912F7CF90E080E0089590
:100400000895E62F272F280F3327331FC90125E032
:10041000289FB001299F700D1124E60FF72FF11DC1
:10042000EE0FFF1FE455FF4F859194910895FC0155
:10043000EE0FFF1FEA54FF4F859194910895CF93DB
:10044000DF930E9401020E942B03EC01811520E53D
:10045000920708F041C0811530E4930708F0B4C05A
:10046000803E910518F5803C910508F09DC0883AC2
:10047000910570F4853A910508F08EC081309105A0
:10048000F9F00097E9F00497D8F4D0E0C0E018C084
:100490008F3B9105D0F7C85AD0E0CC0FDD1FC35F6A
:1004A000DE4F0990D881C02DD4640AC081159042D6
:1004B00058F4C11581E0D80718F4C83ED10528F7D3
:1004C000CE01DF91CF910895C11590E3D90708F0CF
:1004D00071C0CE019F706AC0811525E5920758F55D
:1004E000811534E5930708F09EC0811542E5940715
:1004F00050F4C11581E5D80708F469C0DC2FCC277A
:10050000C16FD06ADDCF982F969596959E01237086
:100510003327C115D34508F077C0C1E0D0E002C051
:10052000CC0FDD1F2A95E2F720E2929FC001112433
:10053000C82BD92B67C0C11589E5D807A8F4C11508
:1005400098E5D90708F074C0C11526E5D20708F070
:100550009CCF8C2F0E94C203C82FD0E0DC2FCC2769
:10056000CC27DF71D062ACCFC1153AE5D30708F4D0
:1005700064C0CE0190568115904208F086CF8D2F31
:100580008F710E94C20390E0982F882788279F715F
:100590009C012C2BE901E6CFC55AD0E0C55CDE4FAB
:1005A000C881D0E0D0648CCF805C91090E94170292
:1005B000EC0186CFCE019927D3FF03C0EC01D86CA4
:1005C0007FCFEC01D06C7CCFDF70D06A79CFCE01C9
:1005D000E4E096958795EA95E1F783702C2F2695B0
:1005E0002695237090E2299F90011124382B8C2F9F
:1005F0008370C1E0D0E002C0CC0FDD1F8A95E2F726
:10060000C22BD32BDC685CCFC1E0D0E002C0CC0FA2
:10061000DD1F2A95E2F730E2939FC0011124C82B19
:10062000D92BDA684DCFD82FCC27C46FD06A48CFEA
:10063000DC2FCC27C06FD06A43CF8C2F8F700E94E5
:10064000C20334E0D695C7953A95E1F7CF709C2F59
:10065000EC01D06935CF82389105B1F1B0F4813326
:10066000910509F475C048F48932910509F469C00F
:100670008A32910509F473C008958533910509F410
:1006800059C08933910501F10895833E9105A9F17F
:1006900038F4803E9105F9F0823E910549F10895C4
:1006A000863E9105A9F1873E9105C9F1843E9105E9
:1006B00019F520912D0221FF1FC080912C0284FD8D
:1006C00014C087EE90E0089520912C022370A1F0D1
:1006D00080EE90E0089520912C0220FD47C03091DB
:1006E0002D0230FF09C024FF44C090E080E004C028
:1006F00020912C0222FDF7CF089520912C0222FD9B
:100700003BC030912D0230FDE3CF24FFF5CFEDCF7C
:1007100020912C0223FFF0CF24FDE7CFD2CF2091F0
:100720002C0223FD2CC030912D0231FFEECF84EE40
:1007300090E0089520912C0225FFDECF89E290E021
:10074000089520912C0225FFD7CF85E390E00895EE
:1007500020912C0226FFD0CF8AE290E008952091CC
:100760002C0226FFC9CF81E390E0089589E390E051
:10077000089583EE90E0089582EE90E0089586EE6D
:1007800090E0089590912C0292FF06C0282F2871C6
:100790002830F9F4877F846093FF06C0282F2871E2
:1007A0002831F1F4877E846120912D0220FF06C05C
:1007B000382F38713830D9F4877F816021FF06C027
:1007C000282F28712831D1F4877E816194FD877E9E
:1007D0000895282F24712430F9F68B7F8860DCCFB0
:1007E000282F2471243101F78B7E8861DDCF382FCB
:1007F0003171313019F78E7F8860E0CF282F217159
:10080000213121F78E7E8861E1CF0C943C010C945C
:100810003D01E82FF0E0E95DFD4F808108950895E6
:1008200080EA8A95F1F70895CF93DF9387988F9A9E
:10083000AEE3B1E043E451E0C1E0D0E08D91E82FB8
:10084000E295EF70F0E061A18F709E0101C0220F70
:100850008A95EAF7922F9095962391A382A1822BF5
:1008600082A34A175B0751F71092260210922702C3
:1008700081E00E948504DF91CF910C949501CF9384
:10088000DF93D091260210922602879A8F980E94B9
:100890001004AEE3B1E030E020E061E04D91E42FE0
:1008A000E295EF70F0E080A15091260290E04F7049
:1008B00002C0959587954A95E2F780FD24C0862F62
:1008C000022E01C0880F0A94EAF7852B8093260236
:1008D0002F5F3F4F2530310509F787988F9AC1E088
:1008E000809126028D1301C0C0E02C2F41E067E209
:1008F00072E086E292E00E9486040E949F018C2FA3
:10090000DF91CF91089580E0E0CF0895FF920F939B
:100910001F93CF93DF93F82E092F162FD72FC42FB5
:10092000222349F081E0809386010E948B139093EB
:10093000850180938401809186018823A1F08091B4
:100940008401909185010E949713069760F0EF2D26
:10095000F02FA12FBD2FCE0FDF2FD11DEC17FD07DC
:1009600041F410928601DF91CF911F910F91FF907A
:10097000089581918D93F2CF0C9441016E98769AEF
:1009800057985F9A8CB186FB882780F929B130E0AF
:10099000220F232F221F330B90E0232B09F092E02C
:1009A000892B809389010895E0918901EE0FEE0F64
:1009B000E09389018CB186FB222720F989B190E070
:1009C000880F892F881F990B009711F082E090E023
:1009D000822BE82BE0938901EF70F0E0ED5BFE4F96
:1009E000808190918801890F8093880184304CF038
:1009F000809187018F5F8093870160E080E00E9493
:100A0000BC04809188018D3F4CF480918701815016
:100A10008093870161E080E00E94BC04809188019E
:100A2000837887FF03C081508C6F8F5F809388012C
:100A300008950F931F93CF93DF93C62FD42F022FC8
:100A4000FC0182818823C9F060938C010E948B1382
:100A500090938B0180938A0180E28C0F883008F09C
:100A600050C0C77081E001C0880FCA95EAF7DF91D6
:100A7000CF911F910F910C941E0910918C011613A8
:100A800035C080918A0190918B010E949713883C18
:100A9000910560F5C0E2CD0F1D17B9F080E2810F1E
:100AA000883040F4177081E001C0880F1A95EAF78A
:100AB0000E942509C83048F481E09D2F977001C03D
:100AC000880F9A95EAF70E941E09802F0E940B0951
:100AD000C830B8F4D77081E001C0880FDA95EAF722
:100AE000DF91CF911F910F910C94250980E28C0F1B
:100AF000883038F4C77081E001C0880FCA95EAF7E2
:100B0000EFCFDF91CF911F910F9108959C01CB0101
:100B1000233F4CE5340731F190F4283DFCE53F07D5
:100B2000E9F0293D4CE5340769F1273D3C4579F46E
:100B300026E241EE61EE0E94190580E00895253F0E
:100B4000FCE53F07B9F090F0263F3C45B9F0FC01C9
:100B500082818823D1F010928C01089527E245EE1E
:100B600065EEE9CF26E241EE60EEE5CF27E245EE05
:100B700064EEE1CF26E241EE62EEDDCF27E245EE04
:100B800066EED9CF28E241E0EBCF81E00895CF9324
:100B9000DF93EC01FB018281882309F419C1C23083
:100BA000FCE5DF07C0F1C6319CE5D90730F09E01B6
:100BB0002A5F3C452930310570F50E94BF119093A2
:100BC0002D0280932C02C031ECE5DE0709F4CFC082
:100BD00008F05BC0C8308CE5D80709F4B6C088F5CA
:100BE000C430ECE5DE0709F4A8C0C0F4C2308CE5DF
:100BF000D80709F49CC080912C028260C330DC4588
:100C000009F498C080912C0290912D020E94CD1180
:100C10000E947B0B80E0DF91CF91089580912C02A0
:100C20008061C630ECE5DE0709F484C080912C02B7
:100C30008860C730DC4508F47DC080912C0280625A
:100C400079C0CC308CE5D80709F489C070F4809164
:100C50002C028C60CA30ECE5DE0709F46BC008F4A6
:100C600078C080912C028E7F65C0CE308CE5D8078D
:100C700009F479C080912C028B7FCF30DC4508F4D9
:100C800059C080912C028F7E55C0CB3FECE5DE072A
:100C900009F457C030F5C3318CE5D80709F46FC0AB
:100CA00078F4C131ECE5DE0709F465C0C231DC45FA
:100CB00009F0A8CF0E947B0B80912C028F773AC05D
:100CC000C5318CE5D80709F462C008F476C080917C
:100CD0002D028160CA3FDC4509F094CF80932D023C
:100CE00091CFCF3FFCE5DF0709F44DC088F4809138
:100CF0002D028D7FCD3F9CE5D90781F380912D0298
:100D00008E7FCE3FDC4550F380912D028360E6CF8D
:100D1000C130FDE5DF0709F459C008F444C080E0A4
:100D2000C230DD4509F06ECF0E944B126BCF80912F
:100D30002C02816080932C0265CF80912C0284600C
:100D4000F9CF80912D028260C9CF80912C028064FE
:100D5000F1CF0E947B0B80912C028068EBCF8091B9
:100D60002C028D7FE7CF80912C02877FE3CF80918B
:100D70002C028F7DDFCF80912C028F7BDBCF809187
:100D80002C02837FD7CF80912D028C7FA7CF8091BB
:100D90002C0282FB992790F921E0922790FB82F99F
:100DA00090FB83F9C7CF80912D02982F9095917079
:100DB0008E7F892B90FB81F991CF0E947B0B9091C4
:100DC0002C02892F97FB87F98058B4CF81E0ACCFF4
:100DD00081E021CFCF93DF93EB0186319C4511F564
:100DE0000E94FD109A81992399F08A7A91E009F482
:100DF00090E090938D01811109C089E20E94D81082
:100E00000E94491180E0DF91CF91089585E3F6CFEC
:100E100080918D01811104C089E20E94DF10F0CF22
:100E200085E3FBCF81E0EFCF909393018093920114
:100E30000895E0919201F0919301309721F0019093
:100E4000F081E02D099480E00895E0919201F09105
:100E50009301309799F020910C01222359F02091B1
:100E60002C0227FF07C0DC012C9111962C931197BF
:100E700025E02C930280F381E02D099408952091C0
:100E80009001309191012817390771F090939101E9
:100E900080939001E0919201F0919301309721F0BD
:100EA0000680F781E02D0994089520918E013091FC
:100EB0008F012817390771F090938F0180938E016D
:100EC000E0919201F0919301309721F00084F18537
:100ED000E02D0994089585B7806885BF85B780683F
:100EE00085BF0895089508950C94720708950C9491
:100EF00076070E946B070E9473070C94740781E0C9
:100F000008950C947F070E9482130E9414040E948B
:100F1000EE130C947707FF920F931F93CF93DF93F9
:100F2000CDB7DEB72A970FB6F894DEBF0FBECDBFA0
:100F30000E943F040E94810781112DC08FEF898399
:100F40008A831B820E948B138160782F9D838C8300
:100F500049815A816B818D810E9403080E94190783
:100F600090919401891709F442C00E941907809357
:100F700094012A960FB6F894DEBF0FBECDBFDF9165
:100F8000CF911F910F91FF900C94A9018F5F000FDB
:100F9000853089F4D3CF80E00E940904182FF090A7
:100FA0009501F81659F28091010281FD0E940F040B
:100FB00080E001E0F1269F2D902341F38E831F8274
:100FC000102381E009F480E088870E948B13816000
:100FD000782F9A8789874E815F8168858A850E94EC
:100FE000030880919501082700939501B7CF2A96B1
:100FF0000FB6F894DEBF0FBECDBFDF91CF911F912A
:101000000F91FF900895CF93DF93CDB7DEB72B9765
:101010000FB6F894DEBF0FBECDBF4F8358876987E8
:101020007A878B871E821D8285E0FE013796DE015E
:10103000119601900D928A95E1F749815A816B8151
:101040007C818D819E812B960FB6F894DEBF0FBEFA
:10105000CDBFDF91CF910C94F10DFC018081918186
:101060000C94AA10CF93C82F882309F483C0823828
:10107000C1F40E94190781FD7DC089E30E94D81048
:101080000E9449112FEF81EE94E021508040904062
:10109000E1F700C0000089E30E94DF10CF910C94BB
:1010A00049118338A1F40E94190780FD63C083E5CC
:1010B0000E94D8100E9449112FEF81EE94E0215038
:1010C00080409040E1F700C0000083E5E5CF843820
:1010D000A1F40E94190782FD4DC087E40E94D81038
:1010E0000E9449112FEF81EE94E021508040904002
:1010F000E1F700C0000087E4CFCF8CEF8C0F813A7E
:1011000090F46C2F80910001909101010E94641273
:10111000882329F08C2F0E94DF100E9449118C2F08
:101120000E94D810BBCF80E28C0F883048F4C77083
:1011300081E001C0880FCA95EAF70E940011AECF86
:10114000EBE5EC0FE33040F4F0E0EF57FE4F808129
:1011500090E0CF910C943F07C85AC73158F4EC2F58
:10116000F0E0EE0FFF1FED5AFE4F80819181CF918D
:101170000C945507CF910895882309F44BC0823809
:1011800071F40E94190781FF45C089E30E94D810BD
:101190000E94491189E30E94DF100C9449118338A1
:1011A00059F40E94190780FF35C083E50E94D810CA
:1011B0000E94491183E5EFCF843859F40E94190742
:1011C00082FF28C087E40E94D8100E94491187E45A
:1011D000E2CF9CEF980F913AF0F290E2980F98309E
:1011E00050F4877091E001C0990F8A95EAF7892F32
:1011F0000E940611D2CF9BE5980F933020F490E027
:1012000080E00C943F07885A873120F490E080E01A
:101210000C9455070895CF93C82F0E943208C93304
:1012200049F42FEF87EE93E0215080409040E1F7A2
:1012300000C000008C2FCF910C94BC08882321F0B3
:101240000E9400110C9449110895882321F00E94F6
:1012500006110C9449110895BF92CF92DF92EF923C
:10126000FF920F931F93CF93DF936C01D62FC72F5D
:10127000FC01058102950F70128111110E941D1150
:101280000E94F610E82E882371F01123B1F080E25D
:101290008D0F883090F082E00E9494110E94F61029
:1012A00091E0E82EE926BC2EB2949FE0B922EB2D06
:1012B000F0E0E25FF44E0C94C41AE12CF4CF0C2F52
:1012C0000F70C07F11F00295007F1123A9F0002359
:1012D00059F080E28D0F883010F0D11109C0802FB5
:1012E0000E9400110E9449118D2F0E94320814C0E3
:1012F000802F0E941011F6CF8D2F0E94BC08002372
:1013000059F080E28D0F883010F0D1112CC0802F61
:101310000E9406110E9449112B2D2850330B2430B6
:10132000310520F40E9419070E94A901EE2009F45A
:1013300093C10E94F21080FD8FC1F60112820E94BB
:10134000EC100E94750FC6010E944D0B0E94EC101C
:10135000DF91CF911F910F91FF90EF90DF90CF9091
:10136000BF900C94960F802F0E941611D3CFFC2FA4
:10137000FF70FF2EC07FC03219F0F29480EFF82288
:10138000DD2369F0D13049F1112391F1002351F1AE
:10139000F601858180FFA8CF8F70858323C011233C
:1013A00081F0011106C00E9430118F290E941E0990
:1013B000B3CF0130C1F70E9430118F290E9436113E
:1013C000ABCF011106C00E943F118F2D0E9425094D
:1013D000A3CF013009F4A0CFF6CF112329F00630B6
:1013E00008F09ACF8F2DE2CF053008F095CFEDCFE2
:1013F000002359F3D93349F4FFEF27EE33E0F150DE
:1014000020403040E1F700C000008D2F0E94BC0852
:1014100083CF8C2F86958695837069F0813009F093
:101420007BCF8D2F9C2F9370111102C090E080E034
:101430000E94550771CF8D2F9C2F9370111102C000
:1014400090E080E00E943F0767CF8C2F837009F007
:1014500041C0111161CF4D2F429546954770440F01
:10146000440F0D2F0F7010E030E020E0042E04C078
:10147000000F111F221F331F0A94D2F760E070E0A3
:10148000CB01D4FF0FC06FE070E080E090E004C0BB
:10149000660F771F881F991F4A95D2F76095709540
:1014A00080959095C695C695C370602B712B822B45
:1014B000932BC23049F058F4C13019F00E94270F25
:1014C0002BCF0E94150F28CF0E94390F25CF0E94E5
:1014D000130F22CF8695112311F08C2F8170882352
:1014E00009F41ACF4D2F429546954770440F440F8B
:1014F0000D2F0F7010E030E020E0042E04C0000F2C
:10150000111F221F331F0A94D2F760E070E0CB0155
:10151000D4FF0FC06FE070E080E090E004C0660F81
:10152000771F881F991F4A95D2F76095709580950F
:101530009095C695C695C370602B712B822B932B0B
:10154000C23049F058F4C13019F00E94EC0FE4CEDB
:101550000E94DA0FE1CE0E94FE0FDECE0E944F0FF6
:10156000DBCECF70112329F08C2F0E94750F8D2FA9
:101570001DCF8D2F0E9425098C2F0E94960FCCCE57
:10158000D23F89F160F4D03FC9F0D13F29F1112356
:1015900009F442C00111A8CE8C2F8F7121C0D33F16
:1015A00039F1D43FA1F7112369F1CF718C2F0E943B
:1015B000750F63E08C2F0E947F11AECE112341F096
:1015C000053008F0A9CE8C2F8F710E94B90FA4CEE0
:1015D000063008F0A1CEF7CF8C2F8F71112369F25E
:1015E0000E94750F99CE8C2F8F711123C9F3C5CF2F
:1015F000112329F08C2F8F710E94600F8DCE0E94D5
:101600005B0F8ACE81E00E949411023008F484CEF0
:1016100082E00E94941180CE002359F0D93309F062
:10162000F4CE8FEF97EEE3E081509040E040E1F799
:10163000EACE8C2F8F71A1CF4C2F4F706D2FC6012A
:101640000E94FD010E948B0E67CE4C2F4F706D2FB4
:10165000C6010E94000260CEDF91CF911F910F91D1
:10166000FF90EF90DF90CF90BF9008950F931F935E
:10167000CF93DF93EC01688179818A810E94B41055
:101680008C010E9410100E94120FB801CE01DF9150
:10169000CF911F910F910C942C09CF93DF93EC0104
:1016A0008B819C81892B29F08881998189238F3FA7
:1016B00019F4DF91CF910895CE010E94C1018823D2
:1016C000C1F3CE010E94360BCE01DF91CF910C9475
:1016D0008A010E941D110E942D110E94491190E063
:1016E00080E00E943F0790E080E00C9455070E9444
:1016F000E6100C94690B0E940D110C94770BE92FE6
:10170000E295EF70E250EE3070F4F0E0E25EF44EFD
:101710000C94C41A803F19F020F4883E20F481E034
:101720000895843FE1F380E00895883EC0F3813F4F
:10173000D1F7F5CF93FB882780F908950E94AA106E
:101740000C947F0BCF93DF9300D000D00F92CDB7D6
:10175000DEB70F900F900F900F900F90DF91CF9109
:101760000895CF93DF9300D000D000D0CDB7DEB77F
:1017700026960FB6F894DEBF0FBECDBFDF91CF9196
:1017800008951F93CF93DF93C091970116E0809146
:1017900098018C1304C0DF91CF911F910895D0E080
:1017A0001C9FF0011D9FF00D1124E756FE4F408154
:1017B000518162817381848195810E94B10B219650
:1017C000C770E5CF4091C9015091CA016091CB012A
:1017D0007091CC018091CD019091CE010C94B10B10
:1017E0001F93CF93DF938091CE01807FA9F48091E6
:1017F000CB01882389F080919701C0919801609175
:10180000C9017091CA01A091CC01B091CD01D62F30
:10181000D72316E0C81304C0DF91CF911F9108951C
:1018200090E0109711F0DF3F19F401968770F2CF26
:10183000189F9001199F300D1124F901E756FE4FB2
:1018400041814713F2CF40814613EFCF42814111CE
:10185000ECCF438154814A1B5B0B483C510528F770
:101860008091CE018F7080618093CE01F901E256A4
:10187000FE4F80818F708061808389EC91E00E94AF
:101880004D0BDF91CF911F910C94C10BAF92BF9282
:10189000CF92DF92EF92FF920F931F93CF93DF933C
:1018A000CDB7DEB761970FB6F894DEBF0FBECDBFE0
:1018B0008C0185E0F801DE011D9601900D928A955C
:1018C000E1F7F80140815181E28089ECC82E81E086
:1018D000D82E6091CC017091CD016115710509F48C
:1018E00061C19091C9012091CA01892F82238F3F44
:1018F00009F458C1A380B480F090CB01F501E61B38
:10190000F70BFF2009F4FCC08091CE01382F307F07
:10191000E83CF10508F0B2C0311179C0FE2C251366
:1019200023C0941321C0E1101FC08F708061809389
:10193000CE010E94E20BC6010E944D0B8091CE01A8
:10194000F80185838F2D61960FB6F894DEBF0FBE28
:10195000CDBFDF91CF911F910F91FF90EF90DF905E
:10196000CF90BF90AF900895AB2829F0842F8523A6
:101970008F3F09F033C180E0F82FF170DF2E80FF38
:101980003CC0809197012091980136E0821315C0E8
:101990004D875E878D859E850E94AA10292F2295EE
:1019A0002F702230F0F0243018F59F70F1F0F8011C
:1019B0009581907FD1F4D12C1EC090E0389FF0012A
:1019C000399FF00D1124E756FE4F6181651306C063
:1019D0006081641303C062816E110FC0019687702D
:1019E000D5CF9F7011F0882331F3805E883018F3D3
:1019F000C8010E944D0BFD2CA5CFEE2009F4A2CF0B
:101A00008091CE0181608093CE01F12C9BCF251374
:101A100006C0941304C0F801EE2009F48DC04D8770
:101A20005E878D859E850E949E0B882319F1EE208E
:101A300009F18091CE01803270F02091C90130917E
:101A4000CA0138872F831986BB86AA868C87CE0168
:101A500007960E944D0B86E0F801A9ECB1E00190D9
:101A60000D928A95E1F70E94F00B0E94E20BFF2491
:101A7000F39468CFC8010E944D0BF9CF311113C008
:101A80007A2DB98AA88A6E2D89890E94A20B89ECC9
:101A900091E00E944D0B86E0F60111928A95E9F7DC
:101AA0000E94E20BB2CF25130FC094130DC0E110BA
:101AB0000BC0F8018583C8010E944D0B86E0F6013A
:101AC00011928A95E9F73ECF4D875E878D859E8579
:101AD0000E949E0B882371F2EE2061F28091CE016C
:101AE000803208F4B8CF2091C9013091CA013A83FD
:101AF00029831B82BD82AC828E83CE010196A9CF41
:101B0000E83CF10508F041C0FE2CEE2009F4B2CF0C
:101B100025132AC0941328C08091CE0180FD1BC0DC
:101B2000982F907FC1F0F8018583903F31F0982F76
:101B3000907F905F8F70892B8583C8010E944D0B29
:101B400086E0F801A9ECB1E001900D928A95E1F7E9
:101B50000E94E20BF7CE86E0F801A9ECB1E001901B
:101B60000D928A95E1F7EECE4D875E878D859E8535
:101B70000E949E0B81116FCF8091CE018160809376
:101B8000CE01C8010E944D0BDDCE7A2DB98AA88AFC
:101B90006E2D89890E94A20B86E0F60111928A952A
:101BA000E9F7D6CFEE2009F465CF4D875E878D85A6
:101BB0009E850E949E0BF82E882309F45BCF86E059
:101BC000F801A9ECB1E001900D928A95E1F789EC5A
:101BD00091E00E942D080E94F00BBACF81E08E2583
:101BE000CBCE1F93CF93DF93CDB7DEB72C970FB635
:101BF000F894DEBF0FBECDBF4F83588769877A87C1
:101C00008B879C87CE0107960E94460C882369F03B
:101C10008A859B85892B39F04F815885842F8523B0
:101C20008F3F09F071C016E05FC086E0FE01379675
:101C3000DE01119601900D928A95E1F78A859B85C8
:101C4000892B89F388859F8189238F3F61F32091B8
:101C5000980130E0C901019687709927409197015A
:101C60004817190671F40E947B0B1092980110928C
:101C7000970186E0E9ECF1E0DF011D928A95E9F732
:101C8000D2CF96E0929FD001939FB00D1124A7561A
:101C9000BE4FFE01319601900D929A95E1F7809327
:101CA00098010E94C10BBFCF819FC00111248756AC
:101CB0009E4F0E94460C8823E9F0E09197011E9FF9
:101CC000F0011124E756FE4F4081518162817381FA
:101CD000848195810E94B10B8091970190E00196DB
:101CE000877099278093970180919701909198012F
:101CF0008913DACF2C960FB6F894DEBF0FBECDBF96
:101D0000DF91CF911F91089569857A858B859C8598
:101D10000E94B10B88CFEF92FF920F931F93CF9346
:101D2000DF938C01892B81F0F12CEE24E394E80100
:101D30002196F8018491843770F4843008F05FC0F4
:101D40008130B1F08230A1F1DF91CF911F910F91DD
:101D5000FF90EF900895853709F44CC008F43DC01A
:101D60009CE7980F903780F78F770E94BC0849C096
:101D70000E5F1F4FFE01849190E2980F983060F43F
:101D80008770FE2D01C0FF0F8A95EAF78F2F0E9402
:101D900020110E94491102C00E9432088F2D8150EB
:101DA00030F2EFE9FFE03197F1F700C00000F7CF24
:101DB0000E5F1F4FFE01849190E2980F983050F40F
:101DC0008770FE2D01C0FF0F8A95EAF78F2F0E94C2
:101DD0002611DFCF0E94BC08E1CF0E5F1F4FFE012E
:101DE000C491C150D8F28FE99FE00197F1F700C08C
:101DF0000000F7CF0E5F1F4FFE01F490CFCF0E947F
:101E000032088E01CBCF08950C94030F0E94040F6B
:101E10006093D8017093D9018093DA019093DB012C
:101E20000C94690B08950C94060F0F931F93009167
:101E3000D8011091D9012091DA013091DB01602B9A
:101E4000712B822B932B1F910F910C94060F0F93E4
:101E50001F930091D8011091D9012091DA0130919E
:101E6000DB0160237123822393231F910F910C9434
:101E7000060F0F931F930091D8011091D901209163
:101E8000DA013091DB0160277127822793271F91A8
:101E90000F910C94060F0C94030F0C944B0F0E949F
:101EA0004D0F6093D4017093D5018093D601909328
:101EB000D7010C94690B60E070E0CB010C944F0FDC
:101EC0000F931F9341E050E060E070E08A019B01B6
:101ED00004C0000F111F221F331F8A95D2F7C901BA
:101EE000B8011F910F910C944F0F0F931F9341E076
:101EF00050E060E070E004C0440F551F661F771F7C
:101F00008A95D2F78091D4019091D501A091D60104
:101F1000B091D7018A019B01082B192B2A2B3B2B4F
:101F2000C901B8011F910F910C944F0F0F931F938C
:101F300041E050E060E070E004C0440F551F661FB0
:101F4000771F8A95D2F7CB01BA016095709580957D
:101F500090950091D4011091D5012091D601309136
:101F6000D70160237123822393231F910F910C9437
:101F70004F0F0F931F9341E050E060E070E004C00A
:101F8000440F551F661F771F8A95D2F78091D401A1
:101F90009091D501A091D601B091D7018A019B0102
:101FA000082719272A273B27C901B8011F910F913C
:101FB0000C944F0F0F931F930091D4011091D501F2
:101FC0002091D6013091D701602B712B822B932B5E
:101FD0001F910F910C944F0F0F931F930091D401F9
:101FE0001091D5012091D6013091D7016023712342
:101FF000822393231F910F910C944F0F0F931F93E4
:102000000091D4011091D5012091D6013091D701D2
:1020100060277127822793271F910F910C944F0FF0
:102020000895E92FEE0FEE0F9E0F890F982F9770EE
:1020300041E001C0440F9A95EAF78695869586950A
:1020400095E0899FF0011124E153FE4F30E020E03C
:1020500070E05191DF011197CB01022E02C09695DD
:1020600087950A94E2F781708195852784238527D7
:102070008C932F5F3F4F2530310559F70895E92F95
:10208000EE0FEE0F9E0F890F982F9770869586950D
:10209000869525E0829FF0011124E153FE4F50E028
:1020A00040E080E0219130E0092E02C0369527956E
:1020B0000A94E2F721703327042E01C0220F0A94FC
:1020C000EAF7822B4F5F5F4F4530510559F708956E
:1020D000BF92CF92DF92EF92FF920F931F93CF9315
:1020E000DF938C01C090D401D090D501E090D6014F
:1020F000F090D7018091D8019091D901A091DA0197
:10210000B091DB01C82AD92AEA2AFB2ACFE1D0E024
:10211000BC2ED701C6010C2E04C0B695A795979585
:1021200087950A94D2F780FD0EC0219788F7B12CCD
:102130008B2DDF91CF911F910F91FF90EF90DF904A
:10214000CF90BF900895B8018C2F0E941F02019775
:1021500061F3EECFCF93DF93EC010E946810BE01D4
:10216000DF91CF910C941F021F93CF93DF93EB016C
:1021700090919601992331F0CB01DF91CF911F917E
:102180000C94AA10882379F0CB010E946810182FB4
:10219000682FCE010E941110BE01812FDF91CF91D7
:1021A0001F910C941F02CB010E943F10182FF4CFF7
:1021B000682F80910001909101010C94E412682F26
:1021C00080910001909101010C94EF128091000127
:1021D000909101010C94FA128091DC01859585950E
:1021E000859508958091DC01877008959091DC01B8
:1021F000977081E009F480E00895809100020895CD
:1022000090910002892B809300020895809590910F
:1022100000029823909300020895109200020895FE
:102220009091FF01892B8093FF01089580959091F3
:10223000FF0198239093FF0108951092FF010895E4
:102240009091FE01892B8093FE01089580959091D5
:10225000FE0198239093FE0108951092FE010895C7
:102260008091DD01089508950C9433119091DD0162
:10227000981721F08093DD010C943411089580911A
:10228000DD01882329F01092DD0180E00C943411E7
:102290000895E0910001F091010180910002808396
:1022A000E0910001F091010180819091FF01892B63
:1022B0008083E0910001F091010180819091FE0105
:1022C000892B80839091DD01992381F0E0910001B9
:1022D000F09101018081892B808380910001909190
:1022E00001010E94501281110E943F118091000152
:1022F000909101010C94250708950C947C1198E0AD
:10230000899F90011124622B6093DC010E94750F5C
:102310008091DC018595859585950C947D111092B1
:10232000DC0180E00C947D119091DC018095892383
:102330008093DC01282F277071F4282F082E000CC1
:10234000330B9217130639F08595859585950E9474
:10235000960F0C948F11089590E080E00E94D21A9D
:1023600021E08C3E9E4F09F020E0822F089582E00C
:1023700090E00C94CA1A83E090E00C94CA1ACF93B0
:1023800084E090E00E94CA1AC82F81E290E00E9487
:10239000CA1A982F8C2FCF910895CF93C92F682FE9
:1023A00084E090E00E94D81A6C2F81E290E0CF91F7
:1023B0000C94D81AAB01BC018FE090E00C94EA1A9F
:1023C000AB01BC0183E190E00C94EA1A60E070E09C
:1023D000CB010C94E01160E070E0CB010E94DA11B7
:1023E0000C94E6116CEE7EEF90E080E00E94F61A0D
:1023F00060E082E090E00E94D81A60E083E090E024
:102400000E94D81A1092D8011092D9011092DA01C4
:102410001092DB0160E084E090E00E94D81A60E056
:1024200081E290E00E94D81A60E085E090E00E948E
:10243000D81A60E086E090E00E94D81A6FEF87E03B
:1024400090E00E94D81A40E050E0BA0188E090E0A5
:102450000E94EA1A60E08DE090E00E94D81A40E005
:1024600050E0BA0188E190E00E94EA1A60E087E15A
:1024700090E00E94D81A40E050E0BA018CE190E070
:102480000E94EA1A60E080E290E00E94D81A0C9460
:10249000EB110C94F211682F8EE090E00C94D81A96
:1024A000FC01329680910C01882321F080912C024E
:1024B0009EE187FF96E080E0915008F40895219115
:1024C0002223D1F38F5FF8CF662301F120910C0115
:1024D0002223F1F020912C0227FF1AC0462F4695A7
:1024E000469546954E3190F4677021E030E002C089
:1024F000220F331F6A95E2F7840F911DFC01828140
:1025000090E02823392381E0232B69F480E00895AB
:10251000FC01329608962191261721F0E817F90759
:10252000D1F7F4CF81E008959C01FC0132969FEF32
:1025300080E04191461751F09F3F19F4411101C0CD
:10254000982F8F5F8630A9F79F3F09F40895290FD0
:10255000311D97FD3A95F90162830895FC01329689
:1025600008962191261303C0DF0111971C92E817EA
:10257000F907B9F70895E62FE695E695E695EE3169
:1025800068F4E80FF92FF11D677021E030E001C019
:10259000220F6A95EAF78281822B82830895E62FC3
:1025A000E695E695E695EE3170F4E80FF92FF11D0A
:1025B000677021E030E001C0220F6A95EAF72095AC
:1025C000828128232283089520910C01222329F05F
:1025D00020912C0227FD0C94BB120C949412209194
:1025E0000C01222329F020912C0227FD0C94CF12FC
:1025F0000C94AE12FC01329680910C01882351F0AC
:1026000080912C0287FF06C08EE1DF011D928A9522
:10261000E9F7089586E0F9CF089508950C940D1315
:102620000E940E1380913202843049F1109202020E
:1026300088E190E020E40FB6F894A89580936000BC
:102640000FBE2093600080E00E94A9010E940E133B
:1026500083B7817F846083BF83B7816083BF7894B1
:10266000889583B78E7F83BF0FB6F894A895809125
:102670006000886180936000109260000FBE089532
:1026800008950E940C130E943F040E94401380E0B2
:102690000E94090491E0811101C090E0892F089502
:1026A00008950C9450130E947B0B0E9419070E94FE
:1026B000A9010C9451131F921FB61F9211248F93DE
:1026C0009F93AF93BF9380910202811113C08091B9
:1026D000280290912902A0912A02B0912B024196E2
:1026E000A11DB11D8093280290932902A0932A0274
:1026F000B0932B02BF91AF919F918F911F901FBEFE
:102700001F90189582E084BD93E095BD9AEF97BD28
:1027100080936E0008952FB7F894809128029091CD
:102720002902A0912A02B0912B022FBF08959C018B
:102730004FB7F8948091280290912902A0912A0223
:10274000B0912B024FBF821B930B089578941F9278
:102750001FB61F9211248F939F93AF93BF938091C5
:10276000280290912902A0912A02B0912B02019691
:10277000A11DB11D8093280290932902A0932A02E3
:10278000B0932B02BF91AF919F918F911F901FBE6D
:102790001F90189581E08093E00080E28093D8003C
:1027A0001092C9008FE19EE40197F1F700C000008C
:1027B00087E090EBDC0180933B0290933C02A09376
:1027C0003D02B0933E0288E19CE00FB6F894A895D4
:1027D000809360000FBE90936000FFCF0E94AC1109
:1027E000811102C00E9449120E94B7118093010218
:1027F0000E94BF1190932D0280932C020E94BB1166
:10280000682F70E090E080E00C94130F8091230219
:1028100008950895CF93DF9300D00F92CDB7DEB720
:1028200090913202943019F589837B836A8382E028
:102830008093E9008FEF9091E800815095FD06C0EC
:1028400095ED9A95F1F700008111F5CF8091E800A0
:1028500085FF0DC050E040E063E070E0CE010196DE
:102860000E9433168091E8008E778093E8000F90E5
:102870000F900F90DF91CF910895CF93DF93EC01EC
:102880000E941616823011F0843031F4BE0184E0CB
:10289000DF91CF910C940A14DF91CF910895BC0180
:1028A00083E00C940A14CF93DF93EC010E94161678
:1028B000823011F08430B9F580910C018823B1F198
:1028C00080912C0287FF32C060E282E08093E900B1
:1028D0008FEF9091E800815095FD06C095ED9A9597
:1028E000F1F700008111F5CF8091E80085FF1BC052
:1028F00080910C0170E050E040E0811104C050E094
:1029000040E068E070E0CE010E9433168091E8005C
:102910008E778093E80080E2FE01A3E0B2E00190B0
:102920000D928A95E1F7DF91CF91089568E081E0FB
:10293000CDCF80913102811109C00E94C3170E943E
:1029400020188091E20084608093E2000895109244
:1029500031020895089508950C94531342E061ECF8
:1029600081E00E943F1742E261EC82E00C943F1745
:1029700080913402833009F45FC030F48130C1F1BA
:10298000823009F49BC008958A3009F487C08B30E7
:1029900009F46DC0893009F04EC080913302813254
:1029A00009F049C08091370290913802029708F0EF
:1029B00042C08091E800877F8093E8008091E80022
:1029C00082FF35C09091F3008091F200029729F4C4
:1029D0008091F1008B7F813021F48091F100809310
:1029E00023028091E8008B778093E8000C947317A2
:1029F00080913302813AF9F48091E800877F8093D7
:102A0000E8008091370290913802892B61F460E2EE
:102A100083E092E070E00E9482168091E8008B775C
:102A20008093E800089560E090E080E0F3CF80912B
:102A300032028111C3CF089580913302813AD9F7D0
:102A40008091370290913802892BA9F78091E80094
:102A5000877F8093E8008091E80080FFFCCF809121
:102A60000C018093F1008091E8008E77BDCF8091BA
:102A70003302813201F78091370290913802892B1D
:102A8000D1F68091E800877F8093E8000E94731759
:102A90008091350280930C010C947B0B8091330262
:102AA000813249F68091E800877F8093E8000E9498
:102AB0007317809136028093240208958091330227
:102AC000813A09F0B8CF8091E800877F8093E800D1
:102AD0008091E80080FFFCCF80912402C2CF84B7B0
:102AE000877F84BF0FB6F894A895809160008861B5
:102AF00080936000109260000FBE80E890E00FB6F7
:102B0000F89480936100909361000FBE0E94790752
:102B10000E94C3170E9420188091E2008460809375
:102B2000E20078940E94A91A0E94830782E091E053
:102B30000E94140780913202853019F00E948B07A1
:102B4000F9CF0E94101380913002882399F30E94DC
:102B50004113882379F30E941D16ECCF0C94B01515
:102B6000292F33272330310519F168F4213031053D
:102B700009F44AC02230310509F44BC090E080E0EE
:102B800030E020E028C02132310579F122323105D0
:102B9000A9F780E490E026EA31E061157105D9F0EB
:102BA0008DE690E029E331E061307105A1F0E6CFD8
:102BB00099278130910599F0009741F08230910575
:102BC00089F00397D9F6E6EBF0E002C0E8EEF0E01A
:102BD000849190E09F01FA01318320830895E0ED14
:102BE000F0E0F6CFECEBF0E0F3CF89E090E02EEFF1
:102BF00030E06115710579F389E090E027E131E07B
:102C00006130710541F3BACF82E190E027E231E013
:102C1000E2CF8BE390E02CEE30E0DDCF809132020A
:102C2000843011F482E0089581E0089580912502B6
:102C3000811102C00C940E16089580E189BD82E1D5
:102C400089BD09B400FEFDCF8091D8008F7D8093AF
:102C5000D8008091E00082608093E0008091E000E5
:102C600081FDFCCF0895AF92BF92CF92DF92FF9289
:102C70000F931F93CF93DF936C01EB018A010E94A6
:102C80009217F82E811123C00115110539F0F801B2
:102C900080819181C81BD90BC80ED91EB12CA12CE3
:102CA0002097A9F08091E80085FD22C08091E8007E
:102CB0008E778093E80001151105A1F0F80180815D
:102CC0009181A80EB91EB182A08285E0F82E8F2DC9
:102CD000DF91CF911F910F91FF90DF90CF90BF9028
:102CE000AF9008950E9492178823D1F2F82EEFCF6B
:102CF000F60181916F018093F1002197FFEFAF1AE8
:102D0000BF0ACECFFC018091390290913A0286171A
:102D10009707A0F06115710529F49091E8009E775E
:102D20009093E80090E06115710551F4911108C08D
:102D30008091E80082FF34C080E00895BC01F2CFAA
:102D4000809132028823C1F18530C1F18091E80081
:102D500083FD30C08091E80082FDEACF8091E800D9
:102D600080FFE1CF8091F3002091F200382F6115B0
:102D7000710519F02830310558F091E028303105FF
:102D800009F090E02091E8002E772093E800CBCF67
:102D900081918093F100615071092F5F3F4FE7CF20
:102DA00080913202882341F0853041F08091E80023
:102DB00083FFBECF81E0089582E0089583E0089507
:102DC000FC018091390290913A0286179707A0F092
:102DD0006115710529F48091E8008E778093E800F1
:102DE00090E06115710551F4911108C08091E800DF
:102DF00082FF35C080E00895BC01F2CF809132029D
:102E00008823C9F18530C9F18091E80083FD31C084
:102E10008091E80082FDEACF8091E80080FFE1CF59
:102E20008091F3002091F200382F6115710519F09F
:102E30002830310558F091E02830310509F090E054
:102E40008091E8008E778093E800CBCF84918093C7
:102E5000F1003196615071092F5F3F4FE6CF8091AD
:102E60003202882341F0853041F08091E80083FFF1
:102E7000BDCF81E0089582E0089583E00895982F02
:102E8000973028F08F708093E90081E00895909347
:102E9000E900242F762F50E0981731F07091EC0064
:102EA0002091ED005091F00021FD02C09F5FE8CF1E
:102EB0003091EB003E7F3093EB003091ED003D7F91
:102EC0003093ED003091EB0031603093EB00709364
:102ED000EC002093ED005093F0002091EE0027FDD0
:102EE000E5CF80E008958091330287FF13C0809181
:102EF000E80082FF06C08091E8008B778093E800AD
:102F000004C0809132028111F2CF08958091320283
:102F10008823D9F38091E80080FFF8CF8091E80002
:102F20008E77ECCF2091E4003091E50095E6A90181
:102F30002091EC00822F817020FF06C08091E80074
:102F400080FF06C080E008952091E80022FD1AC0AD
:102F500080913202882389F0853089F08091EB00DE
:102F600085FD0FC02091E4003091E5004217530722
:102F7000F9F29150E1F684E0089582E0089583E04B
:102F8000089581E008950E9431180E943918E0EEFA
:102F9000F0E0808181608083E8EDF0E080818F77D0
:102FA000808319BCA7EDB0E08C918E7F8C938081DB
:102FB0008F7E80831092310208950F931F93CF93D9
:102FC000DF930E9431180E943918C8EDD0E0888143
:102FD0008F77888388818068888388818F7D8883C4
:102FE00019BC1092320210922E02109230021092EE
:102FF0002F0200EE10E0F80180818B7F80838881B2
:103000008160888342E060E080E00E943F17E1EE4B
:10301000F0E080818E7F8083E2EEF0E0808181604D
:103020008083808188608083F80180818E7F8083A7
:10303000888180618883DF91CF911F910F910895DE
:10304000E8EDF0E080818F7E8083E7EDF0E0808125
:103050008160808384E082BF81E0809331020C94A0
:10306000DD17E8EDF0E080818E7F80831092E20032
:1030700008951092DA001092E10008951F920F92C5
:103080000FB60F9211242F933F934F935F936F933B
:103090007F938F939F93AF93BF93EF93FF93809111
:1030A000E10082FF0BC08091E20082FF07C08091A7
:1030B000E1008B7F8093E1000E94A81A8091DA00E2
:1030C00080FF19C08091D80080FF15C08091DA0080
:1030D0008E7F8093DA008091D90080FF96C080E1D6
:1030E00089BD82E189BD09B400FEFDCF81E08093F6
:1030F00032020E9499148091E10080FF19C08091F2
:10310000E20080FF15C08091E2008E7F8093E20094
:103110008091E20080618093E2008091D80080621B
:103120008093D80019BC85E0809332020E94AB14D2
:103130008091E10084FF2BC08091E20084FF27C0D2
:1031400080E189BD82E189BD89B5982F917080FFAA
:10315000FBCF8091D8008F7D8093D8008091E100D3
:103160008F7E8093E1008091E2008F7E8093E20069
:103170008091E20081608093E20080912E0288239A
:1031800009F449C084E0809332020E94AC1480911B
:10319000E10083FF29C08091E20083FF25C0809178
:1031A000E100877F8093E10082E0809332021092F9
:1031B0002E028091E1008E7F8093E1008091E200F9
:1031C0008E7F8093E2008091E20080618093E20034
:1031D00042E060E080E00E943F178091F00088604C
:1031E0008093F0000E94AA14FF91EF91BF91AF91DC
:1031F0009F918F917F916F915F914F913F912F910F
:103200000F900FBE0F901F90189519BC10923202AC
:103210000E94A71470CF8091E30087FD93E0909304
:103220003202B3CF1F920F920FB60F9211242F9339
:103230003F934F935F936F937F938F939F93AF933E
:10324000BF93CF93DF93EF93FF93D091E900DF70AB
:103250008091EC00C82FC17080FDC0E81092E90099
:103260008091F000877F8093F00078940E94561937
:103270001092E9008091F00088608093F000CD2BDF
:10328000CF70C093E900FF91EF91DF91CF91BF9193
:10329000AF919F918F917F916F915F914F913F91EE
:1032A0002F910F900FBE0F901F9018951F93CF93E3
:1032B000DF93CDB7DEB7AA970FB6F894DEBF0FBE87
:1032C000CDBF83E392E02091F100FC012193CF0177
:1032D000F2E08B339F07B9F70E94B8148091E800A1
:1032E00083FF1EC180913302909134029A3008F01E
:1032F00017C1E92FF0E0E45DF44E0C94C41A803855
:1033000099F0823809F00CC1809137028F708730B4
:1033100008F006C18093E9008091EB0085FB8827C7
:1033200080F91092E90006C080912F02909130023E
:10333000911182609091E800977F9093E8008093CC
:10334000F1001092F1008091E8008E77E5C08823AB
:1033500009F4D3C0823009F0E3C0809135028111B5
:10336000D6C0809137028F702FEF280F263008F0DB
:10337000D7C08093E9002091EB0020FFC8C09330B4
:1033800031F48091EB0080628093EB00C0C090919B
:10339000EB0090619093EB0021E030E001C0220F40
:1033A0008A95EAF72093EA001092EA008091EB00F8
:1033B0008860EACF8111B4C0109135021F778091E7
:1033C000E3008078812B8093E3008091E800877F81
:1033D0008093E8000E9473178091E80080FFFCCF83
:1033E0008091E30080688093E30082E0111183E024
:1033F0008093320295C08058823008F091C080914D
:103400003502909136028C3D23E09207A1F583E0CE
:103410008A838AE289834FB7F894DE01139620E00D
:103420003EE051E2E32FF0E050935700E49120FF9B
:1034300003C0E295EF703F5FEF708E2F90E0EA30AF
:10344000C0F0C7968D939D932F5F243159F74FBFDE
:103450008091E800877F8093E8006AE270E0CE0107
:1034600001960E9482168091E8008B778093E80095
:1034700057C0C096E7CF6091370270913802AE0115
:103480004F5F5F4F0E94AE15BC01892B09F448C005
:103490009091E800977F9093E80089819A810E943B
:1034A000E016E1CF8038E1F58091E800877F8093D6
:1034B000E80080912E028093F10045CF811130C049
:1034C00090913502923060F58091E800877F80937B
:1034D000E80090932E020E94731780912E02882399
:1034E00011F084E005C08091E30087FDFACF81E010
:1034F000809332020E94AE1413C080913502813055
:1035000079F481E0933009F080E0809330021092EA
:10351000E9008091E800877F8093E8000E9473179C
:103520008091E80083FF0AC08091E800877F809344
:10353000E8008091EB0080628093EB00AA960FB6C2
:10354000F894DEBF0FBECDBFDF91CF911F910895DC
:103550000895CF93809132028823A1F0C091E900B1
:10356000CF709091EC00892F817090FD80E8C82B7E
:103570001092E9008091E80083FD0E945619CF70F7
:10358000C093E900CF910895EE0FFF1F0590F491CD
:10359000E02D0994F999FECF92BD81BDF89A992743
:1035A00080B50895A8E1B0E042E050E00C94FE1A26
:1035B000262FF999FECF92BD81BDF89A019700B4EC
:1035C000021639F01FBA20BD0FB6F894FA9AF99A8C
:1035D0000FBE08950396272F0E94D91A0E94D81A69
:1035E000252F0E94D91A242F0C94D91A0196272F1F
:1035F0000E94D91A0C94D81ADC01CB01FC01F9996C
:10360000FECF06C0F2BDE1BDF89A319600B40D922E
:1036100041505040B8F70895F894FFCF5F095F0913
:10362000B709B709090A8C098C098C09250AB10A5E
:10363000C00AC00A1C0B8C098C09250B8A0B8A0B4B
:10364000930B930B950B930B930B930B8A0B8A0B9A
:103650009A0B930B930B9A0B7F19A719901AA71922
:0C366000901ADA19FB19901A521A5E1A1F
:10366C00DE010614531409144F143D1401E200E951
:10367C0000EA00B500B600B700CD008301CC008A8B
:10368C000192019401210223022402250226022721
:10369C00022A02B300B4006F0070008182833534BB
:1036AC0031323300FF0100010000FFFF0000010078
:1036BC0001FF00E200E900EA00B500B600B700CD5A
:1036CC00008301CC008A019201940121022302247F
:1036DC00022502260227022A02B300B4006F0070F2
:0436EC000081828354
:00000001FF
